:020000040800F2
:10000000F0060020D5030008DD010008DF0100082C
:10001000E3010008E7010008EB0100080000000010
:10002000000000000000000000000000EF010008D8
:10003000F101000800000000F3010008ED030008D2
:10004000EF030008EF030008EF030008EF030008C8
:10005000EF030008EF030008EF030008EF030008B8
:10006000EF030008EF030008EF030008EF030008A8
:10007000EF030008EF030008EF030008EF03000898
:10008000EF030008EF030008EF030008EF03000888
:10009000EF030008EF030008EF030008EF03000878
:1000A000EF030008EF030008EF030008EF03000868
:1000B000EF030008D13B0008EF030008EF0300083E
:1000C000EF030008EF030008EF030008EF03000848
:1000D000EF030008EF030008911F0008EF0300087A
:1000E000EF030008EF030008EF03000800F002F838
:1000F00000F03AF80AA090E8000C82448344AAF188
:100100000107DA4501D100F02FF8AFF2090EBAE885
:100110000F0013F0010F18BFFB1A43F0010318473B
:10012000F466000014670000103A24BF78C878C154
:10013000FAD8520724BF30C830C144BF04680C60ED
:10014000704700000023002400250026103A28BF35
:1001500078C1FBD8520728BF30C148BF0B60704739
:100160001FB51FBD10B510BD03F067FD1146FFF7A9
:10017000F7FF00F009F803F085FD03B4FFF7F2FF85
:1001800003BC03F08DFD000001F044FE01F0ACFE65
:1001900002F0E2F94FF4E13001F0ACFE02F03BFB7B
:1001A000472141F2873003F085FC40F2CF2140F235
:1001B000CF7003F0E1FC0BE002F0E2F805490870B3
:1001C0000846007802F00CF90349887802F092F8AA
:1001D000F2E70000000000205C000020704700BF34
:1001E000FEE700BFFEE700BFFEE700BFFEE7704787
:1001F000704770470CB50020019000906C48006873
:1002000040F480306A49086000BF6948006800F423
:10021000003000900198401C0190009818B9019896
:10022000B0F5A06FF1D16248006800F4003010B161
:100230000120009001E0002000900098012843D1A7
:100240005C48006840F010005A49086008460068A1
:1002500020F0030008600846006840F002000860D3
:10026000534840685249486008464068486008461C
:10027000406840F4806048600846406820F47C1084
:1002800048600846406840F4E81048600846006846
:1002900040F08070086000BF4548006800F00070C2
:1002A0000028F9D04248406820F0030040494860E7
:1002B0000846406840F00200486000BF3C48406883
:1002C00000F00C000828F9D10CBD10B5FFF792FF23
:1002D00010BD10B53648006840F001003449086090
:1002E000084640683449084031494860084600687B
:1002F000324908402E4908600846006820F48020F2
:1003000008600846406820F4FE0048604FF41F0073
:100310008860FFF7DAFF4FF000602949086010BDE0
:1003200010B5002100200022214B5B6803F00C0176
:1003300021B1042906D0082928D107E0214B224CFD
:10034000236027E01F4B204C236023E0184B5B68A1
:1003500003F47010164B5B6803F48032022303EB46
:10036000904022B9194B4343174C23600DE0104BCA
:100370005B6803F4003323B1144B4343124C2360F6
:1003800003E0104B4343104C236003E00D4B0E4C35
:10039000236000BF00BF064B5B68C3F303130C4C24
:1003A000E15C094B1B68CB40074C236010BD00008B
:1003B00000100240002002400000FFF8FFFFF6FEA0
:1003C00008ED00E000127A000400002000093D0062
:1003D000080000200948804709480047FEE7FEE77B
:1003E000FEE7FEE7FEE7FEE7FEE7FEE7FEE7FEE7E5
:1003F00004480549054A064B70470000D30200082F
:10040000ED000008F0000020F0060020F0020020BF
:10041000F002002031490143314A1160704770B544
:10042000002100230F22C47804B32D4C246804F467
:10043000E064C4F5E064210AC1F10403CA404478D1
:1004400004FA03F18478144021430901254C06780D
:10045000A155047804F01F050124AC4005786D1106
:10046000AD0005F1E025C5F8004109E0047804F08D
:100470001F050124AC401C4D0678761145F8264036
:1004800070BD1A4A0A400243154B1B1F1A60704781
:1004900039B1134A121D12680243114B1B1D1A6019
:1004A00006E00F4A121D126882430D4B1B1D1A6095
:1004B0007047042808D14FF0E021096941F0040198
:1004C0004FF0E022116107E04FF0E021096921F0CF
:1004D00004014FF0E0221161704700000000FA05AE
:1004E0000CED00E000E400E080E100E080FFFF1F91
:1004F00010B50446CC48844208D10121042000F004
:100500002DFB0021042000F029FB46E0C74884426F
:1005100008D10121082000F021FB0021082000F073
:100520001DFB3AE0C248844208D10121102000F0AE
:1005300015FB0021102000F011FB2EE0BD48844285
:1005400008D10121202000F009FB0021202000F02B
:1005500005FB22E0B848844208D10121402000F088
:10056000FDFA0021402000F0F9FA16E0B348844279
:1005700008D10121802000F0F1FA0021802000F054
:10058000EDFA0AE0AE48844207D10121801500F05F
:10059000E5FA0021A01500F0E1FA10BD10B5012127
:1005A000084600F0DBFA0021012000F0D7FA10BD68
:1005B0002DE9F041024600250026002000230024FA
:1005C000002791F803C00CF00F0591F803C00CF060
:1005D000100CBCF1000F03D091F802C04CEA0505E5
:1005E00091F800C0BCF1000F31D0146800202BE05E
:1005F0004FF0010C0CFA00F3B1F800C00CEA03064E
:100600009E4220D183004FF00F0C0CFA03F7BC433D
:1006100005FA03FC4CEA040491F803C0BCF1280F6E
:1006200006D14FF0010C0CFA00FCC2F814C00AE02D
:1006300091F803C0BCF1480F05D14FF0010C0CFA42
:1006400000FCC2F810C0401C0828D1D31460B1F8D7
:1006500000C0BCF1FF0F34DD546800202EE000F133
:10066000080C4FF0010808FA0CF3B1F800C00CEACE
:1006700003069E4221D183004FF00F0C0CFA03F7C2
:10068000BC4305FA03FC4CEA040491F803C0BCF136
:10069000280F05D100F1080C08FA0CF8C2F81480F4
:1006A00091F803C0BCF1480F07D100F1080C4FF0DE
:1006B000010808FA0CF8C2F81080401C0828CED3B4
:1006C0005460BDE8F0814FF6FF7101800221817016
:1006D0000421C17070470246002093680B400BB1A3
:1006E000012000E0002070470146886880B2704712
:1006F00002460020D3680B400BB1012000E000202F
:1007000070470146C86880B2704701617047416117
:1007100070470AB1016100E041617047C1607047F4
:100720004FF480320A438261816182618269826909
:10073000704702460020434B18684FF680731840FC
:1007400040EA021008433F4B186070473E49C861B9
:100750007047F0B50A46002300240021002500F070
:100760000046B6F1004F02D1364EF16901E0354E38
:100770007168C0F3034583B200F44016B6F5401F1C
:1007800008D121F070612F4E766826F070662D4FEB
:100790007E6012E000F48016B6F5801F06D10326B5
:1007A00006FA05F4A14341F0706106E0460D3601FA
:1007B00003FA06F6B14341F0706122B1460D3601ED
:1007C00003FA06F6314300F00046B6F1004F02D1BD
:1007D0001C4EF16101E01B4E7160F0BD30B500228E
:1007E0008B071C0F0F2303FA04F2164B08338C10EF
:1007F00053F824309343134C08348D1044F82530BB
:1008000023468C1053F824308C07240F00FA04F48C
:1008100023430C4C08348D1044F8253030BD0A4970
:10082000DC3108607047000000080140000C014006
:10083000001001400014014000180140001C01405C
:10084000002001400000014000002042DF48006815
:1008500040F00100DD49086008464068DC49084076
:10086000DA49486008460068DA490840D749086014
:100870000846006820F4802008600846406820F49C
:10088000FE0048604FF41F0088607047CF49096838
:1008900021F48031CD4A11601146096821F480218C
:1008A0001160B0F5803F03D0B0F5802F0ED106E087
:1008B000C649096841F48031C44A116007E0C34960
:1008C000096841F4A021C14A116000E000BF00BFE7
:1008D000704710B501460022002300204A11012A6A
:1008E00002D1BA4C236806E0022A02D1B74C236A2F
:1008F00001E0B64C636A01F01F02012494401C40E1
:100900000CB1012000E0002010BD38B5002000909F
:100910000024002500BF3120FFF7DBFF05460098CB
:10092000401C00900098B0F5A06F01D0002DF2D0CF
:100930003120FFF7CEFF08B1012400E0002420465B
:1009400038BD01460020A14A106820F0F80040EAB6
:10095000C10010607047A04908607047024600203F
:100960009A4B586820F47C1042EA01031843974BD5
:100970005860704798490866704701460020934ABE
:10098000506820F003000843506070478F4840686B
:1009900000F00C007047014600208C4A506820F09F
:1009A000F00008435060704701460020874A5068B5
:1009B00020F4E06008435060704701460020834AFD
:1009C000506820F4605040EAC1005060704729B17F
:1009D0007E4A527A02437D4B5A7204E07B4A527A35
:1009E00082437A4B5A7270477B49D831086070470E
:1009F00001460020754A506820F44040084350608A
:100A000070470021714A20321170704A82F820101C
:100A1000012802D004280AD104E001216B4A2032C7
:100A2000117005E00521694A2032117000E000BF15
:100A300000BF70476949086070476449096A01430B
:100A4000624A11627047654944390860704730B5A1
:100A500000210022002400235C4D6D6805F00C018C
:100A600021B1042905D0082923D105E05C4D05609A
:100A700022E05B4D05601FE0544D6D6805F4701277
:100A8000524D6D6805F48034022505EB92421CB985
:100A9000544D554305600BE04C4D6D6805F4003531
:100AA0001DB1504D5543056002E04D4D5543056065
:100AB00002E04B4D056000BF00BF444D6D6805F07E
:100AC000F0010909484D6B5C0568DD4045603F4D0C
:100AD0006D6805F4E061090A434D6B5C4568DD40D3
:100AE00085603A4D6D6805F46051C90A3E4D6B5CF6
:100AF0004568DD40C560354D6D6805F44041890BA2
:100B00003A4D6B5CC568B5FBF3F5056130BD29B1A5
:100B10002E4A526902432D4B5A6104E02B4A526916
:100B200082432A4B5A61704729B1284A926902438D
:100B3000264B9A6104E0254A92698243234B9A61CD
:100B4000704729B1214AD2690243204BDA6104E09F
:100B50001E4AD26982431D4BDA61704729B11B4A94
:100B6000D2680243194BDA6004E0184AD268824323
:100B7000164BDA60704729B1144A12690243134BCD
:100B80001A6104E0114A12698243104B1A617047DE
:100B900012494039086070470F49C86470470B49D3
:100BA000C87170470948406A40F080700749486240
:100BB000704701460020054A92680A400AB10120A8
:100BC00000E0002070470149887270470010024021
:100BD0000000FFF8FFFFF6FE0000424280044242A0
:100BE00000127A0000093D001800002028000020B3
:100BF00010B50446FB48844209D101218803FFF760
:100C0000ADFF00214FF48040FFF7A8FF32E0F64827
:100C1000844209D101214804FFF7ADFF00214FF4C0
:100C20000030FFF7A8FF25E0F048844209D10121F8
:100C30008804FFF7A0FF00214FF48020FFF79BFFFF
:100C400018E0EB48844209D10121C804FFF793FF63
:100C500000214FF40020FFF78EFF0BE0E5488442AF
:100C600008D101210805FFF786FF00214FF480100D
:100C7000FFF781FF10BD2DE9F04786B005460E460F
:100C80000024A24600BFA1460027B08900B100BFE2
:100C90002F462C8A4CF6FF700440F08804432C82C7
:100CA000AC894EF6F3100440B0883189084371894D
:100CB00008430443AC81AC8A4FF6FF400440B0893E
:100CC0000443AC8201A8FFF7C2FEC648874202D1A6
:100CD000DDF810A001E0DDF80CA0A88900F40040C8
:100CE00040B10AEBCA0000EB0A1031684900B0FBC2
:100CF000F1F807E00AEBCA0000EB0A10316889003E
:100D0000B0FBF1F86420B8FBF0F004012009642185
:100D100001FB1089A88900F4004040B1322000EBAB
:100D2000C900B0FBF1F000F00700044308E03220F6
:100D300000EB09106421B0FBF1F000F00F00044358
:100D40002C8106B0BDE8F0874FF4165101600021F8
:100D50008180C18001810C21418100218181704706
:100D600010B502460020108A4FF2FF0318400B888E
:100D70004C8823438C882343CC8823431843108218
:100D800010BD0021018041808180C180704721B168
:100D9000828942F40052828104E082894DF6FF7319
:100DA0001A4082817047F0B50346002400260025D2
:100DB000002040F66A17B94200D100BF1846C1F3BF
:100DC000421401F01F06012707FA06F5012C01D194
:100DD0000C3004E0022C01D1103000E014301AB1C4
:100DE00007682F43076002E00768AF430760F0BD64
:100DF0001AB1838A0B43838202E0838A8B43838206
:100E00007047028A4FF6F0731A400282028A0A4340
:100E10000282704782894FF2FF731A408281828971
:100E20000A438281704721B1828942F002028281A5
:100E300004E082894FF6FD731A4082817047028A6E
:100E40004FF6DF731A400282028A0A430282704719
:100E500021B1028A42F48042028204E0028A4BF607
:100E6000FF731A4002827047C1F308028280704704
:100E700001468888C0F308007047818941F001016C
:100E800081817047028BD2B20283028B42EA012237
:100E900002837047028B02F47F420283028B0A4373
:100EA0000283704721B1828A42F02002828204E0EC
:100EB000828A4FF6DF731A408282704721B1828A9C
:100EC00042F01002828204E0828A4FF6EF731A40E9
:100ED0008282704721B1828A42F00802828204E055
:100EE000828A4FF6F7731A408282704721B1828955
:100EF00042F40042828103E08289C2F30E028281C1
:100F0000704721B1828A42F40062828204E0828AC0
:100F10004FF2FF731A4082827047828A4FF6FB734A
:100F20001A408282828A0A438282704721B1828A71
:100F300042F00202828204E0828A4FF6FD731A4078
:100F40008282704702460020B1F5007F00D100BFC9
:100F500013880B400BB1012000E00020704701F422
:100F60000072B2F5007F00D100BFCA430280704713
:100F700070B50246002400230025002040F66A16C2
:100F8000B14200D100BFC1F3421501F01F03012699
:100F900006FA03F3012D02D19689334006E0022DB3
:100FA00002D1168A334001E0968A33400C120126A2
:100FB00006FA04F41688344013B10CB1012000E0A5
:100FC000002070BD10B50022002340F66A14A14233
:100FD00000D100BF0A1201249440A3B2DC43048074
:100FE00010BD0000003801400044004000480040AF
:100FF000004C00400050004010B50446FE488442BA
:1010000008D10121C014FFF7A9FD0021E014FFF76A
:10101000A5FDC4E0B4F1804F08D101210846FFF7D7
:10102000AAFD00210120FFF7A6FDB8E0F3488442A5
:1010300008D101210220FFF79EFD00210220FFF7C9
:101040009AFDACE0EE48844208D101210420FFF76C
:1010500092FD00210420FFF78EFDA0E0E9488442C4
:1010600008D101210820FFF786FD00210820FFF7A5
:1010700082FD94E0E448844208D101211020FFF76A
:101080007AFD00211020FFF776FD88E0DF488442DA
:1010900008D101212020FFF76EFD00212020FFF75D
:1010A0006AFD7CE0DA48844208D101214014FFF750
:1010B00055FD00216014FFF751FD70E0D5488442D2
:1010C00009D10121C804FFF749FD00214FF4002098
:1010D000FFF744FD63E0D048844209D101210805AF
:1010E000FFF73CFD00214FF48010FFF737FD56E07D
:1010F000CA48844209D101214805FFF72FFD00218C
:101100004FF40010FFF72AFD49E0C548844208D19A
:1011100001214020FFF72FFD00214020FFF72BFD8C
:101120003DE0C048844208D101218020FFF723FD23
:1011300000218020FFF71FFD31E0BB48844208D129
:1011400001218015FFF717FD0021A015FFF713FD02
:1011500025E0B648844209D101210804FFF7FEFCCE
:1011600000214FF48030FFF7F9FC18E0B0488442CA
:1011700009D101214804FFF7F1FC00214FF40030B0
:10118000FFF7ECFC0BE0AB48844208D10121880456
:10119000FFF7E4FC00214FF48020FFF7DFFC10BDD7
:1011A00000220288944B98420ED0994B98420BD063
:1011B000B0F1804F08D0914B984205D0904B9842A7
:1011C00002D0904B984204D14FF68F731A404B884F
:1011D0001A438D4B984207D08C4B984204D04FF65F
:1011E000FF431A40CB881A4302808B8883850B8883
:1011F0000385814B98420BD0854B984208D08B4B8E
:10120000984205D08A4B984202D08A4B984201D12D
:101210000B7A038601238382704770B50024002275
:101220000023058C4FF6FE7635400584028C8388BA
:10123000048B4FF68F752C40B51E2C400D882C4327
:10124000751E2A400D892A434D882A436A4DA842BB
:101250000BD06F4DA84208D0744DA84205D0744DF4
:10126000A84202D0734DA84213D14FF6F7752A4019
:101270004D892A434FF6FB752A408D882A434FF645
:10128000FF652B404FF6FF552B408D892B43CD89B1
:101290002B4383800483CD888586028470BD70B51E
:1012A000002400220023058C4FF6EF76354005849C
:1012B000028C8388048B48F6FF752C404FF6FF455F
:1012C0002C400D884FF6FF7606EA05252C434FF695
:1012D000DF752A400D8906EA05152A434D8806EA7E
:1012E00005152A43444DA84202D0494DA8421DD1BC
:1012F0004FF67F752A404D894FF6FF7606EA0515B1
:101300002A434FF6BF752A408D8806EA05152A4301
:101310004FF6FF352B404FF2FF752B408D8906EAC3
:1013200085052B43CD8906EA85052B4383800483FD
:10133000CD880587028470BD70B50024002200238B
:10134000058C4FF6FF6635400584028C8388848BBC
:101350004FF68F752C404FF6FC752C400D882C43B2
:101360004FF6FF552A400D894FF6FF7606EA052510
:101370002A434D8806EA05252A431F4DA84202D07C
:10138000234DA8421DD14FF2FF752A404D894FF6DB
:10139000FF7606EA05252A434FF6FF352A408D8859
:1013A00006EA05252A434EF6FF752B404DF6FF75DC
:1013B0002B408D8906EA05152B43CD8906EA0515D4
:1013C0002B4383808483CD888587028470BD70B56C
:1013D000002200230024058C4EF6FF76354005845C
:1013E000038C8488828B48F6FF752A404FF6FF45B0
:1013F0002A400D8820E00000002C0140000400403D
:1014000000080040000C00400010004000140040A4
:1014100000340140004C01400050014000540140A4
:1014200000180040001C0040002000400040014027
:1014300000440140004801404FF6FF7606EA0525CA
:101440002A434DF6FF752B400D8906EA05352B43DF
:101450004D8806EA05352B43FA4DA84202D0FA4DD5
:10146000A84208D14BF6FF752C408D894FF6FF76C8
:1014700006EA85152C4384808283CD88A0F84050ED
:10148000038470BD828B4FF2FF331A408283828BBC
:101490004FF6FF7303EA01231A4382837047F0B5C6
:1014A0000C461546002200210026078C4EF6FF7CD4
:1014B00007EA0C070784828B018C4FF6FF7707EA57
:1014C000043640F6FF473A404FF6FF7707EA052714
:1014D0003A434FF6FF7707EA03373A43D94FB8420A
:1014E0000ED0D94FB8420BD0B0F1804F08D0D74FB3
:1014F000B84205D0D64FB84202D0D64FB84206D136
:101500004DF6FF77394046F48057394305E047F6FA
:10151000FF57394044F48057394382830184F0BD3A
:10152000828B4FF6F3731A408283828B0A43828345
:101530007047F0B50C461546002200210026078CA6
:101540004FF6FF6C07EA0C070784828B018C4FF67D
:10155000FF7707EA04264FF60C773A404FF6FF77FD
:1015600007EA03172F433A43B64FB8420ED0B64F9F
:10157000B8420BD0B0F1804F08D0B44FB84205D07C
:10158000B34FB84202D0B34FB84206D14FF6FF571F
:10159000394046F48077394305E04FF2FF57394030
:1015A00044F48077394382830184F0BD028B4FF28B
:1015B000FF331A400283028B4FF6FF7303EA0123C5
:1015C0001A4302837047F0B50C46154600220021ED
:1015D0000026078C4FF6EF7C07EA0C070784028B86
:1015E000018C4FF6FF7707EA041640F6FF473A40B2
:1015F0004FF6FF7707EA03373A434FF6FF7707EADC
:1016000005273A438F4FB8420ED08F4FB8420BD0C8
:10161000B0F1804F08D08D4FB84205D08C4FB84202
:1016200002D08C4FB84206D14FF6DF77394046F0F2
:101630001007394305E04FF65F77394044F0100753
:10164000394302830184F0BD028B4FF6F3731A40D5
:101650000283028B0A4302837047F0B50C4615469D
:1016600000220021068C4FF6FE773E400684028B56
:10167000018C4FF60C7632407E1C06EA03162E4390
:101680003243704EB0420ED06F4EB0420BD0B0F12C
:10169000804F08D06D4EB04205D06D4EB04202D0A2
:1016A0006C4EB04206D14FF6FD76314044F0010653
:1016B000314305E04FF6F576314044F00106314301
:1016C00002830184F0BD70B505460C465D48854235
:1016D0000ED05D4885420BD0B5F1804F08D05B48F5
:1016E000854205D05A48854202D05A48854200D1E9
:1016F00000E000BF208850B92389A288618828466D
:10170000FFF7ABFFE1882846FFF79EFF25E0208822
:1017100004280AD12389A28861882846FFF753FF4D
:10172000E1882846FFF742FF17E0208808280AD101
:101730002389A28861882846FFF7FBFEE1882846B6
:10174000FFF7EEFE09E02389A28861882846FFF7AB
:10175000A6FEE1882846FFF795FE70BD2DE9F04111
:1017600005460C4600260127608808B9022600E0DD
:101770000026A088012801D1022700E00127208847
:10178000A0B92389A28861882846FFF766FFE1880F
:101790002846FFF759FF23893A4631462846FFF786
:1017A00012FFE1882846FFF701FF13E02389A28892
:1017B00061882846FFF707FFE1882846FFF7F6FE15
:1017C00023893A4631462846FFF747FFE1882846F5
:1017D000FFF73AFFBDE8F0810A884B881A438B88EF
:1017E0001A43CB881A430B891A434B891A438B89B6
:1017F0001A43A0F8442070474FF6FF718180002102
:101800000180C180418001727047002101804180C8
:101810008180C180018141818181C1817047002126
:1018200001804180012181800021C18001817047B8
:101830000021018041808180C180018141818181BD
:1018400070470000002C01400034014000040040BB
:1018500000080040000C004021B1028842F0010263
:10186000028004E002884FF6FE731A40028070473F
:1018700031B1B0F8442042F40042A0F8442005E021
:10188000B0F84420C2F30E02A0F8442070471AB109
:1018900083890B43838102E083898B438381704773
:1018A0008182704741EA0203A0F8483070471AB1BC
:1018B00083890B43838102E083898B438381704753
:1018C00001894FF6F8721140018170470A460021E4
:1018D00001894FF68F73194011430181704730B56C
:1018E00004460D4629462046FFF7F0FF208940F0C8
:1018F0000700208130BD2DE9F04104460D46164613
:101900001F46602D06D13B46012231462046FFF797
:101910005AFE05E03B46012231462046FFF79DFE78
:1019200029462046FFF7D2FF208940F0070020819A
:10193000BDE8F08130B50C4600210189C9B24FF6EF
:10194000FF7505EA0325154325432943018130BD71
:101950002DE9F04105460E461746984600244346B9
:101960003A4631462846FFF7E5FF2C894FF6F870D6
:10197000044044F007044FF68F70044044F07004B4
:101980002C81BDE8F081F0B504460D4616461F4691
:101990003B46324629462046FFF7CCFF208940F4DB
:1019A00080402081F0BD0185828270470A46002177
:1019B00001884FF68F731940114301807047F0B5CD
:1019C0000C4615461E460021002200230189028B89
:1019D000038C4FF6F877394021434FF6FC473A40E5
:1019E00040F201173A434FF6DD773B404FF6FF7761
:1019F00007EA06172F433B43018102830384F0BDAE
:101A00000A460021018B4FF68F7319401143018361
:101A100070470A460021018B48F6FF7319404FF6C4
:101A2000FF7303EA02231943018370470A4600212A
:101A3000818B4FF68F7319401143818370470A469B
:101A40000021818B48F6FF7319404FF6FF7303EABC
:101A5000022319438183704721B1028842F080023A
:101A6000028004E002884FF67F731A4002807047BC
:101A700021B1828842F00402828004E082884FF61D
:101A8000FB731A408280704721B1828842F00802BD
:101A9000828004E082884FF6F7731A408280704794
:101AA00021B1828842F00102828004E082884FF6F0
:101AB000FE731A40828070470A460021018B4FF660
:101AC000F77319401143018370470A460021018BC7
:101AD0004FF2FF7319404FF6FF7303EA02231943D5
:101AE000018370470A460021818B4FF6F773194036
:101AF0001143818370470A460021818B4FF2FF73A7
:101B000019404FF6FF7303EA02231943818370479C
:101B10000A460021018B4FF6FB73194011430183E4
:101B200070470A460021018B4FF6FF3319404FF6EC
:101B3000FF7303EA02231943018370470A46002119
:101B4000818B4FF6FB7319401143818370470A461E
:101B50000021818B4FF6FF3319404FF6FF7303EAE4
:101B600002231943818370470A460021018B4FF6F7
:101B70007F7319401143018370470A460021018B8E
:101B8000C1F30E014FF6FF7303EA022319430183E9
:101B900070470A460021818B4FF67F73194011432D
:101BA000818370470A460021818BC1F30E014FF6F5
:101BB000FF7303EA02231943818370470A46002119
:101BC000018C4FF6FD7319401143018470470A469A
:101BD0000021018C4FF6F7731940114301847047BF
:101BE0000A460021018C4FF6DF7319404FF6FF7350
:101BF00003EA02131943018470470A460021018C4D
:101C00004FF67F7319404FF6FF7303EA021319432F
:101C1000018470470A460021018C4FF6FF5319409A
:101C20004FF6FF7303EA02231943018470470A4603
:101C30000021018C4FF2FF7319404FF6FF7303EA46
:101C400002231943018470470A460021018C4DF696
:101C5000FF7319404FF6FF7303EA023319430184FF
:101C6000704730B5002301248C40A3B2048C9C4300
:101C70000484048C02FA01F5ADB22C43048430BD17
:101C800030B5002304248C40A3B2048C9C4304840C
:101C9000048C02FA01F5ADB22C43048430BD70B55A
:101CA0000346002000241846183001258D40ACB2B0
:101CB0001D8CA5431D8409B1082909D100EB6100E1
:101CC000056825F0700505600568154305600EE0A0
:101CD0000D1FC5F34E052844056825F4E045056051
:101CE00005684FF6FF7606EA02263543056070BDAB
:101CF00021B1028842F00202028004E002884FF61D
:101D0000FD731A400280704721B1028842F004023C
:101D1000028004E002884FF6FB731A40028070478D
:101D200021B1828842F08002828004E082884FF6EE
:101D30007F731A408280704702884FF6F7731A400B
:101D4000028002880A430280704782884FF68F73B0
:101D50001A40828082880A438280704702894FF647
:101D6000F8731A40028102890A430281704702898E
:101D70004FF67F731A40028102890A43028170473D
:101D800081847047818570478186704701877047DD
:101D900081877047A0F84010704702884FF6FF43D4
:101DA0001A40028002880A43028070470146888EEA
:101DB00070470146088F70470146888F704701467B
:101DC000B1F8400070470146888C70470146088D85
:101DD000704702460020138A0B400BB1012000E03F
:101DE00000207047CA430282704730B50246002087
:101DF00000230024158A05EA0103958905EA0104F8
:101E000013B10CB1012000E0002030BDCA430282B2
:101E10007047000010B56FF00400FEF74AFB2E4833
:101E200000682E49B0FBF1F02D4908700846007893
:101E300000EB4001C1EBC0104FF6FF7101EAC0009A
:101E40002849088010BD0146254A12784A434FF0C0
:101E5000E0235A6100229A611A46126942F0010297
:101E60001A6100BF4FF0E022106900F001021AB1C0
:101E700000F48032002AF5D04FF0E022126922F0FF
:101E800001024FF0E0231A6100229A617047014677
:101E9000144A12884A434FF0E0235A6100229A61A3
:101EA0001A46126942F001021A6100BF4FF0E022A7
:101EB000106900F001021AB100F48032002AF5D056
:101EC0004FF0E022126922F001024FF0E0231A6184
:101ED00000229A61704700000400002000127A007E
:101EE0002C0000202E00002010B54FF4A060FEF75B
:101EF00091FA10BD10B586B0044601210520FEF709
:101F000020FE01214804FEF71CFE0420ADF810005D
:101F100018208DF8130003208DF8120004A97348CF
:101F2000FEF746FB0820ADF8100004208DF81300E2
:101F300004A96E48FEF73CFB00940020ADF80400B5
:101F4000ADF80600ADF80800ADF80C000C20ADF8B7
:101F50000A0069466648FEF78EFE012240F22551CE
:101F60006348FEF720FF01216148FEF710FF26209D
:101F70008DF8140001208DF8170000208DF8150051
:101F800001208DF8160005A8FEF749FA06B010BD2D
:101F900010B540F225515648FEF7EAFF002872D0EE
:101FA0005348FEF765FF53490870012052490870F5
:101FB00052480078022829D003DC38B101287DD1AD
:101FC00012E00A2844D01428F9D163E04948007887
:101FD000AA2804D149480078401C4849087045485F
:101FE0000078474908707EE042480078552809D1BA
:101FF00042480078401C414908703E4800784049FA
:10200000487002E000203D4908706CE039480078D3
:1020100001280AD1374800783949887039483A4947
:1020200008600A203549087011E03248007802281B
:102030000AD11420314908703448334908602D48CA
:1020400000782F49887002E000202C4908704AE08F
:102050002F4800780C2817D2264800782A490968AA
:10206000087029480068401C274908602148017809
:10207000234A27480078C01C115425480078401C8A
:102080002349087005E02FE00020214908701B4912
:10209000087028E01E480078102818D215480078EB
:1020A00019490968087018480068401C16490860FA
:1020B00010480178124A1648007800E00DE0C01C74
:1020C000115413480078401C1149087004E00020A6
:1020D0000F4908700949087005E000200749087099
:1020E0000B49087000BF00BF10BD00000008014090
:1020F000004400403000002001000020310000209A
:102100005C00002070000020340000207C000020D3
:102110003200002000208E4908604860886041F24B
:102120008730C86070472DE9F0418A4908684FF050
:10213000804102F0DFFA2BD286498868864902F096
:102140000DFA064683490868844902F007FA0746F3
:10215000834902F045F90546314602F041F904464B
:1021600002F0ACF97A4908607A4908687B4902F0C4
:10217000F5F905467B4902F033F9044602F09EF971
:10218000734988600020486041F28730C8607AE077
:10219000704908684FF0404102F0ACF929D26D490E
:1021A00008686E4902F0DAF905466E4902F0D3FA82
:1021B000044602F083F9664948600020C860086060
:1021C00064498868644902F0C9F9064661490868AB
:1021D000624902F0C3F90746634902F001F9054676
:1021E000314602F0FDF8044602F068F9584988606B
:1021F00049E0584988685D4902F07CFA1DD255498A
:102200000868554902F0AAF9044602F057F9504906
:10221000086050490868514902F0A0F90546514943
:1022200002F0DEF8044602F049F9494988600020CE
:10223000486041F28730C86025E0464988684C49CB
:1022400002F058F91DD243490868444902F086F962
:102250000546434902F0C4F8044602F02FF93C4910
:1022600008603C4908683C4902F078F9044602F0ED
:1022700025F9374988600020486041F28730C860FE
:1022800001E0FFF747FFBDE8F0813A4800686421AC
:1022900048432F49086037480068642148432C4967
:1022A00088600020486041F28730C8603148C068CB
:1022B00032280CDA084601682E48C068323800EB34
:1022C000C00202EB001001EB4000214908602948E0
:1022D000C06832280DDD1E4880682649C968C1F1F2
:1022E000320101EBC10202EB011100EB4100184980
:1022F0008860704710B5044614B9FFF70BFF0BE078
:10230000012C02D1FFF70FFF06E0022C02D1FFF7EC
:10231000BCFF01E0FFF7FEFE0D48008881B21648C1
:10232000FFF732FD0A48808881B21348FFF72EFD7F
:102330000748008981B21048FFF72AFD04488089C8
:1023400081B20D48FFF726FD00200C49087010BD32
:102350004C00002070000020000048420000C842ED
:10236000000048430000964300F8954500004040B7
:10237000000040C07C000020002C01400100002033
:1023800010B561A20021084601F04AF96048807842
:1023900040B96048007828B100205E49087001F01B
:1023A000D5F81AE05A488078012809D159480078B0
:1023B000012805D001205749087001F0C7F80CE04A
:1023C00053488078022808D152480078022804D067
:1023D00002205049087001F0B9F84E48007810BD4D
:1023E000F8B5044624B94CA202211E2001F018F9C8
:1023F000012C39D14BA20021462001F011F94BA24A
:102400000221002001F00CF94AA20421002001F071
:1024100007F94AA20621002001F002F9484908689C
:1024200001F0B2FF054602202A460B4647210090E4
:1024300000F03CFD4249486801F0A6FF0546022035
:102440002A460B4647210090042000F02FFD3C490E
:10245000886801F099FF054602202A460B4647216D
:102460000090062000F022FD022C4CD135A2002164
:10247000462001F0D5F835A20221002001F0D0F865
:1024800033A20421002001F0CBF830A20221462023
:1024900001F0C6F82EA20421462001F0C1F82D4912
:1024A000086801F016FD054600202A460B461E214D
:1024B0000090022000F0FAFC2649486801F009FD6E
:1024C000054600202A460B461E210090042000F0FD
:1024D000EDFC2049886801F0FCFC054600202A46F6
:1024E0000B4664210090022000F0E0FC1949C86806
:1024F00001F0EFFC054600202A460B4664210090BF
:10250000042000F0D3FCF8BD2A6D6F64652D3E00F9
:102510005C00002038000020646973636F6E6E6594
:102520006374000073656E7300000000706974636B
:1025300068000000726F6C6C000000007961770029
:102540007000002072656D6F7465000055443A009C
:102550004C523A007C00002008B501210C20FEF707
:10256000E3FA4FF47040ADF8000048208DF8030006
:1025700069464C48FEF71CF84FF48050ADF8000057
:1025800048208DF8030069464748FEF711F808BD5A
:1025900008B501210420FEF7C7FA7320ADF800004A
:1025A00048208DF8030069463F48FEF701F808BD52
:1025B00010B5044614B101203C4908703B4800782E
:1025C00000284BD04FF480513748FEF784F8B8B15B
:1025D0004FF480513348FEF77EF888B14FF4004144
:1025E0003048FEF778F858B14FF400512D48FEF707
:1025F00072F828B14FF480412A48FEF76CF868BBA6
:102600000A20FFF744FC0020284908704FF480514D
:102610002548FEF760F808B9012010BD4FF480513D
:102620002048FEF758F808B90220F6E74FF40041B9
:102630001C48FEF750F808B90320EEE74FF40051AC
:102640001848FEF748F808B90420E6E74FF480413F
:102650001448FEF740F810BB0520DEE74FF4805128
:102660001148FEF738F8012819D101030D48FEF78B
:1026700032F8012813D1C1030A48FEF72CF80128CB
:102680000DD141030748FEF726F8012807D1810341
:102690000448FEF720F8012801D104490870002001
:1026A000BBE70000000C0140000801403900002099
:1026B00070B504460E4626B12021F748FEF725F8EE
:1026C00003E02021F448FEF722F8002519E04FF43A
:1026D0000041F248FEF71BF804F0800020B1082109
:1026E000ED48FEF712F803E00821EB48FEF70FF87B
:1026F0004FF40041E948FEF708F86006040E681C34
:10270000C5B2082DE3DB2021E348FDF7FEFF70BDD5
:1027100007E040F2375100BF0A1EA1F10101FBD1D1
:10272000401E0028F5D1704770B5044608252021C9
:10273000D948FDF7EAFF00BF4FF40041D748FDF745
:10274000E6FF00BF18E004F0800020B10821D24865
:10275000FDF7DBFF03E00821CF48FDF7D8FF4FF47A
:102760000041CE48FDF7D1FF00BF4FF40041CB48F8
:10277000FDF7CDFF6006040E281EA5F10101CDB2C4
:10278000E1D170BD70B5044608252021C248FDF78F
:10279000BEFF2903C148FDF7BAFF00BF18E004F0EF
:1027A000800020B10821BC48FDF7AFFF03E00821FD
:1027B000B948FDF7ACFF4FF40041B848FDF7A5FF5D
:1027C00000BF4FF40041B548FDF7A1FF6006040EBD
:1027D000281EA5F10101CDB2E1D170BD70B506464C
:1027E000002415E004F1B001C8B2FFF7CBFF0120CF
:1027F000FFF7C8FF1020FFF7C5FF002504E03046B3
:10280000FFF792FF681CC5B2802DF8DB601CC4B2D4
:10281000082CE7DB70BD08B501210846FEF784F9F6
:1028200001219F48FDF795FF01210420FEF77CF967
:102830004FF40040ADF8000003208DF80200102096
:102840008DF8030069469548FDF7B2FE0121082086
:10285000FEF76AF93820ADF8000003208DF8020079
:1028600010208DF8030069468B48FDF7A1FE4FF458
:1028700000418A48FDF749FF10218748FDF747FFCF
:102880003220FFF745FF10218348FDF73EFF00216E
:10289000AE20FFF70DFF0021D520FFF709FF002133
:1028A0008020FFF705FF0021A820FFF701FF00218E
:1028B0003F20FFF7FDFE0021D320FFF7F9FE0021A6
:1028C0000846FFF7F5FE00214020FFF7F1FE00214A
:1028D0008D20FFF7EDFE00211420FFF7E9FE002117
:1028E0002020FFF7E5FE00210220FFF7E1FE002196
:1028F000A120FFF7DDFE0021C820FFF7D9FE00214F
:10290000DA20FFF7D5FE00211220FFF7D1FE0021CB
:102910008120FFF7CDFE0021EF20FFF7C9FE002147
:10292000D920FFF7C5FE0021F120FFF7C1FE0021ED
:10293000DB20FFF7BDFE00214020FFF7B9FE00219C
:10294000A420FFF7B5FE0021A620FFF7B1FE00216D
:10295000AF20FFF7ADFE0020FFF740FF08BD70B5C8
:1029600004460D4605F1B001C8B2FFF70BFF102178
:1029700041EA1410FFF706FF04F00F00FFF702FF13
:1029800070BD70B5002415E004F1B001C8B2FFF7C6
:10299000F9FE0120FFF7F6FE1020FFF7F3FE0025F9
:1029A00004E00020FFF7C0FE681CC5B2802DF8DBF4
:1029B000601CC4B2082CE7DB70BD10B5044620468D
:1029C000FFF7E0FE10BD70B504462546E11704EBA5
:1029D00011710911A4EB0111C8B2FFF7D3FE25460E
:1029E000E11704EB117109111031C8B2FFF7CAFEEB
:1029F00070BD10B504462020FFF7C4FE2046FFF747
:102A0000C1FE10BD70B505460C462120FFF7BAFE89
:102A10002846FFF7B7FE2046FFF7B4FE70BD70B53D
:102A200005460C462220FFF7ADFE2846FFF7AAFE1A
:102A30002046FFF7A7FE70BD10B5044644F04000E5
:102A4000FFF7A0FE10BD10B504468120FFF79AFEE7
:102A50002046FFF797FE10BD10B504468D20FFF706
:102A600091FE44F01000FFF78DFE10BD10B5044636
:102A700044F0A000FFF786FE10BD10B5044644F0F8
:102A8000A400FFF77FFE10BD10B5044644F0A60079
:102A9000FFF778FE10BD0000000C01400008014067
:102AA0000002300010B50446A820FFF76BFE204658
:102AB000FFF768FE10BD10B5044644F0AE00FFF706
:102AC00061FE10BD10B5044644F0B000FFF75AFE99
:102AD00010BD10B5044644F0C000FFF753FE10BD12
:102AE00010B50446D320FFF74DFE2046FFF74AFEFF
:102AF00010BD10B50446D520FFF744FE2046FFF771
:102B000041FE10BD10B50446D920FFF73BFE20461C
:102B1000FFF738FE10BD10B50446DA20FFF732FE8D
:102B200044F00200FFF72EFE10BD10B50446DB2076
:102B3000FFF728FE2046FFF725FE10BD10B5E32065
:102B4000FFF720FE10BD2DE9F047044688461546E4
:102B50004FF000090026002741462046FFF7FFFE00
:102B60001CE0E85D203800F0FF097E2C04DD002425
:102B700008F1010000F0FF08002609E009EB490117
:102B8000FE4A02EB4101885DFFF7CEFD701CC6B224
:102B9000062EF3DBA01DC4B2781CC7B2E85D002886
:102BA000DFD1BDE8F0872DE9F04706460F46904695
:102BB00000250024A14631E018F809002038C5B2EC
:102BC000782E02DD0026781CC7B239463046FFF762
:102BD000C6FE002407E004EB0511E94A505CFFF74C
:102BE000A3FD601CC4B2082CF5DB781CC1B23046D2
:102BF000FFF7B5FE002408E004EB05110831E04AB8
:102C0000505CFFF791FD601CC4B2082CF4DB06F1A8
:102C10000800C6B209F1010000F0FF0918F8090028
:102C20000028C9D1BDE8F0872DE9F04781460F465D
:102C300090460024002601256BE00024012513E0C6
:102C4000D048005D18F8061088420BD1CD49601CB1
:102C5000095C701C18F80000814203D1C4EBC40069
:102C6000450005E0A01CC4B2C648005D7F28E7DC33
:102C700000BFB9F1760F03DD4FF00009781CC7B231
:102C800039464846FFF76BFE012D1FD039464846AE
:102C9000FFF765FE002406E0BB49485DFFF744FDF1
:102CA0006D1C601CC4B20E2CF6DB781CC1B2484609
:102CB000FFF755FE002406E0B349485DFFF734FDF9
:102CC0006D1C601CC4B20E2CF6DB1CE0701CC6B27E
:102CD00039464846FFF743FE002404E00020FFF792
:102CE00023FD601CC4B2102CF8DB781CC1B248462E
:102CF000FFF735FE002404E00020FFF715FD601CFF
:102D0000C4B2102CF8DB09F10E0000F0FF09B01C72
:102D1000C6B218F8060000288FD1BDE8F087F8B5D4
:102D200006460F461546002427E0285D7F2814DD5F
:102D3000285D8DF80000601C285C8DF801000020E3
:102D40008DF802006A4639463046FFF72CFF06F13F
:102D50000E00C6B2A01CC4B20FE0285D8DF80000C2
:102D600000208DF801006A4639463046FFF71BFF08
:102D700006F10800C6B2601CC4B2285D0028D4D198
:102D8000F8BDF8B505460C461646E006040E8DF86B
:102D9000006000208DF801006A4629462046FFF7B2
:102DA000D2FEF8BDF8B507460E4615460024F006DB
:102DB000060E27E0285D7F2814DD285D8DF80000D1
:102DC000601C285C8DF8010000208DF802006A4626
:102DD00039463046FFF728FF06F10E00C6B2A01CA8
:102DE000C4B20FE0285D8DF8000000208DF80100CE
:102DF0006A4639463046FFF7A6FE06F10800C6B21D
:102E0000601CC4B2285D0028D4D1F8BD2DE9FC4176
:102E100007460E4614469846002500200090019073
:102E2000F006060E42F21070B4FBF0F00A21B0FB7F
:102E3000F1F201FB12008DF800004FF47A70B4FB40
:102E4000F0F0B0FBF1F201FB12008DF801006420FC
:102E5000B4FBF0F0B0FBF1F201FB12008DF80200C0
:102E60000A20B4FBF0F0B0FBF1F201FB12008DF888
:102E700003000A20B4FBF0F100FB11408DF80400C0
:102E800000BF07E01DF805003030C0B20DF80500A6
:102E9000681CC5B2052DF5DBC8F10500694642186E
:102EA00039463046FFF77FFEBDE8FC812DE9FF5F24
:102EB00086B014461D464FF0010A0020039004908E
:102EC00005904FF00109002600BF834600221346FB
:102ED0002046294601F028F809D285F00040CDE9C6
:102EE00000402046019900F097FF064604E0204686
:102EF000294600F091FF0646304600F0EAFF2246E0
:102F00002B46CDE9000101F049F907468846002229
:102F10001E4B3846414601F043F8CDE9000100F070
:102F2000ABFF834607E009EB89004FEA40090AF14D
:102F3000010000F0FF0A0A2096FBF0F090FBF9F088
:102F40000028F0D142F2107096FBF0F00A2190FBBD
:102F5000F1F201FB1200C0B28DF80C004FF47A7050
:102F600096FBF0F090FBF1F201FB1200C0B28DF87D
:102F70000D00642096FBF0F00AE0000056480008BF
:102F80006F4B00087E4A00088F4A00080088C34043
:102F900090FBF1F201FB1200C0B28DF80E000A2086
:102FA00096FBF0F090FBF1F201FB1200C0B28DF83D
:102FB0000F000A2096FBF0F100FB1160C0B28DF803
:102FC00010002E208DF811004FF47A70BBFBF0F04A
:102FD0000A21B0FBF1F201FB12008DF8120064200F
:102FE000BBFBF0F0B0FBF1F201FB12008DF8130017
:102FF0000A20BBFBF0F0B0FBF1F201FB12008DF8F0
:1030000014000A20BBFBF0F100FB11B08DF8150095
:1030100000211498801D03AA1154894608E003A8D2
:1030200010F80900303003A901F8090009F101097D
:10303000B9F10A0FF3DB002213462046294600F0BF
:1030400073FF08D20AF1010000F0FF0A2D20CAF137
:10305000050103AA50542E208DF811000021149868
:10306000801D03AA1154CAF1050003A94218DDE925
:103070000610FFF798FD0AB0BDE8F09F2DE9F04F6C
:1030800089B08246894617469846DDF84CB0012043
:10309000079000200490059006900124002500BFB1
:1030A00000264FEAC9604FEA10693846414600F0F1
:1030B000B3FE0546284600F023FF3A464346CDE9D5
:1030C000000101F06BF8CDE902010022FE4BDDE9C1
:1030D000020100F065FFCDE9000100F0CDFE0646DB
:1030E00006E004EB840044000798401CC0B207903F
:1030F0000A20B5FBF0F0B0FBF4F00028F1D142F269
:103100001070B5FBF0F00A21B0FBF1F201FB1200E8
:103110008DF810004FF47A70B5FBF0F0B0FBF1F2CF
:1031200001FB12008DF811006420B5FBF0F0B0FB3C
:10313000F1F201FB12008DF812000A20B5FBF0F04D
:10314000B0FBF1F201FB12008DF813002E208DF878
:1031500015004FF47A70B6FBF0F0B0FBF1F201FB12
:1031600012008DF816006420B6FBF0F0B0FBF1F20F
:1031700001FB12008DF817000A20B6FBF0F0B0FB3F
:10318000F1F201FB12008DF818000A20B6FBF0F1F5
:1031900000FB11608DF8190000210BF1060004AA54
:1031A0001154002405E004A8005D303004A908553E
:1031B000641C0A2CF7DB2E208DF8150000210BF182
:1031C000060004AA11541298C0F1050004A942187F
:1031D00051464846FFF7E7FC09B0BDE8F08F70B5EF
:1031E0000026002411E021460020FFF7B8FB00254F
:1031F00007E03146761CB54A505CFFF795FA681C2B
:10320000C5B2802DF5DB601CC4B2082CEBDB70BDB1
:103210002DE9F05F06460F4690461C46DDF828A0D3
:103220004FF0000BE11704EB5171C910A4EBC10181
:1032300031B92046E11704EB5171C1F3C70506E02F
:103240002046E11704EB5171C910491CCDB23D462F
:1032500015E029463046FFF782FBB1460BE05946A0
:103260000BF1010B1AF801000121FFF721FA09F116
:10327000010000F0FF09C145F1DB681CC5B2A542A1
:10328000E7DBBDE8F09FF8B506460F461446002080
:10329000009002250DE00A2094FBF0F100FB1140A4
:1032A0003030C0B20DF805000A2094FBF0F0C4B233
:1032B0006D1E002DEFDA6A4639463046FFF773FC83
:1032C000F8BDF8B506460F461446002000900225CA
:1032D0000DE00A2094FBF0F100FB11403030C0B249
:1032E0000DF805000A2094FBF0F0C4B26D1E002D0D
:1032F000EFDA6A4639463046FFF725FCF8BD2DE97E
:10330000F04105460F46164600BF05EB450149064C
:10331000080E3946FFF723FB00240AE006F11001EE
:1033200001EB41016A4A02EB4101085DFFF7FCF93C
:10333000641C062CF2DBBDE8F0812DE9F041054666
:103340000E4614460A2094FBF0F100FB1140C7B270
:103350000A2094FBF0F000F0FF08691CC8B23A465E
:103360003146FFF7CCFF424631462846FFF7C7FFFC
:10337000BDE8F0812DE9F04705460E46144664206D
:10338000B4FBF0F000F0FF096420B4FBF0F100FBA7
:1033900011400A21B0FBF1F80A20B4FBF0F100FB68
:1033A00011474A4631462846FFF7A9FF691CC8B2B3
:1033B00042463146FFF7A3FFA91CC8B23A46314640
:1033C000FFF79DFFBDE8F0872DE9F05F05468B46CE
:1033D00016463446002C00DA64424FF47A7094FBAF
:1033E000F0F0C7B24FF47A7094FBF0F100FB11409B
:1033F000642190FBF1F000F0FF08642094FBF0F1F1
:1034000000FB11400A2190FBF1F000F0FF090A20B7
:1034100094FBF0F100FB114000F0FF0A3A465946D8
:103420002846FFF76CFF691CC8B242465946FFF7B1
:1034300066FFA91CC8B24A465946FFF760FFE91C5F
:10344000C8B252465946FFF75AFFBDE8F09F2DE932
:10345000F05F05460E46144642F21070B4FBF0F0E1
:10346000C7B242F21070B4FBF0F100FB11404FF410
:103470007A71B0FBF1F000F0FF080846B4FBF0F100
:1034800000FB11406421B0FBF1F000F0FF09642063
:10349000B4FBF0F100FB11400A21B0FBF1FA0A2065
:1034A000B4FBF0F100FB114B3A4631462846FFF7DA
:1034B00026FF691CC8B242463146FFF720FFA91C0F
:1034C000C8B24A46314605E00088C340DF5D0008C7
:1034D00056480008FFF713FFE91CC8B252463146B0
:1034E000FFF70DFF291DC8B25A463146FFF707FF07
:1034F000BDE8F09F70B504460E4626B12021FE4877
:10350000FDF703F903E02021FB48FDF700F9002552
:1035100019E04FF40041F948FDF7F9F804F0800094
:1035200020B10821F448FDF7F0F803E00821F24843
:10353000FDF7EDF84FF40041F048FDF7E6F86006BE
:10354000040E681CC5B2082DE3DB70BD70B5002405
:1035500019E004F1B001C8B20021FFF7CBFF002150
:103560000846FFF7C7FF00211020FFF7C3FF002523
:1035700005E001210020FFF7BDFF681CC5B2802DCA
:10358000F7DB601CC4B2082CE3DB70BD70B50446E9
:103590000D4605F1B001C8B20021FFF7ABFF1021C5
:1035A00041EA14100021FFF7A5FF04F00F0141F0DC
:1035B00001000021FFF79EFF70BD2DE9F041074695
:1035C0000E469046A8F12000C5B27F2F02DD0027ED
:1035D000B01CC6B231463846FFF7D8FF002408E0D9
:1035E00004EB0511C64A505C0121FFF783FF601C04
:1035F000C4B2082CF4DB701CC1B23846FFF7C6FF1A
:10360000002409E004EB05110831BD4A505C01219A
:10361000FFF770FF601CC4B2082CF3DBBDE8F0813B
:103620002DE9F04104460F46154600260EE0AA5D3E
:1036300039462046FFF7C1FF04F10800C4B2782CD8
:1036400002DD0024B81CC7B2701CC6B2A85D0028F9
:10365000EDD1BDE8F0812DE9F04107460E46154653
:1036600031463846FFF792FF002408E0A54A02EBF6
:103670008511085D0121FFF73DFF601CC4B2102CCD
:10368000F4DB701CC1B23846FFF780FF00240AE06B
:103690006900491C9B4A02EB4111085D0121FFF7BB
:1036A00029FF601CC4B2102CF2DBBDE8F08138B5F4
:1036B000FFF74CFF002211461B20FFF7CCFF012231
:1036C00000212D20FFF7C7FF022200213F20FFF736
:1036D000C2FF032200215120FFF7BDFF0422022177
:1036E0001220FFF7B8FF052202212420FFF7B3FFC5
:1036F000062202214820FFF7AEFF072202215A20AE
:10370000FFF7A9FF80A204210020FFF789FF7FA215
:1037100006210020FFF784FF7DA204216C20FFF723
:103720007FFF7CA206216C20FFF77AFF78A204219C
:103730003620FFF775FF77A206213620FFF770FFCE
:103740007548008800F0DCFB0446022022460B4648
:10375000472100900420FFF7A9FB70A2202102203E
:10376000FFF720FB6E48008800F0CAFB04460220E9
:1037700022460B46472100900620FFF797FB38BDF5
:1037800038B5FFF7E3FE002211461B20FFF763FF69
:10379000012200212D20FFF75EFF022200213F20A1
:1037A000FFF759FF032200215120FFF754FF0422A5
:1037B00002211220FFF74FFF052202212420FFF7EC
:1037C0004AFF062202214820FFF745FF0722022177
:1037D0005A20FFF740FF53A204210020FFF720FFEB
:1037E00051A206210020FFF71BFF49A204216C20F3
:1037F000FFF716FF47A206216C20FFF711FF44A236
:1038000004213620FFF70CFF42A206213620FFF7E5
:1038100007FF4148008800F073FB0446022022465F
:103820000B46472100900420FFF740FB3C480088EE
:1038300000F066FB0446022022460B46472100901A
:103840000620FFF733FB38BD38B5FFF77FFE0022B7
:1038500011461B20FFF7FFFE012200212D20FFF75C
:10386000FAFE022200213F20FFF7F5FE032200218D
:103870005120FFF7F0FE042202211220FFF7EBFE99
:10388000052202212420FFF7E6FE0622022148201D
:10389000FFF7E1FE072202215A20FFF7DCFE23A2F8
:1038A00004210020FFF7BCFE21A206210020FFF723
:1038B000B7FE17A204216C20FFF7B2FE15A2062165
:1038C0006C20FFF7ADFE12A204213620FFF7A8FE00
:1038D00010A206213620FFF7A3FE0F48008800F053
:1038E0000FFB0446022022460B464721009004208D
:1038F000FFF7DCFA0A481DE0000C01400008014017
:103900006F4B00085F550008493100005631000038
:1039100041000000560000003A0000205F00000057
:1039200042000020493200005632000049330000B6
:1039300056330000008800F0E3FA044602202246D5
:103940000B46472100900620FFF7B0FA38BD38B586
:10395000FFF7FCFD002211461B20FFF77CFE012231
:1039600000212D20FFF777FE022200213F20FFF7E4
:1039700072FE032200215120FFF76DFE0422022176
:103980001220FFF768FE052202212420FFF763FEC4
:10399000062202214820FFF75EFE072202215A205C
:1039A000FFF759FE3EA204210020FFF739FE3DA299
:1039B00006210020FFF734FEAFF2AC0204216C2098
:1039C000FFF72EFEAFF2B40206216C20FFF728FEAF
:1039D000AFF2C40204213620FFF722FEAFF2CC0280
:1039E00006213620FFF71CFE2F48008800F088FAD9
:1039F0000446022022460B46472100900420FFF790
:103A000055FA2A48008800F07BFA04460220224634
:103A10000B46472100900620FFF748FA38BD2DE9F4
:103A2000F04706460F46904600250024A14631E0A7
:103A300018F809002038C5B2782E02DD0026781C5F
:103A4000C7B239463046FEF78AFF002407E004EB90
:103A50000511174A505CFEF767FE601CC4B2082CC3
:103A6000F5DB781CC1B23046FEF779FF002408E090
:103A700004EB051108310E4A505CFEF755FE601C40
:103A8000C4B2082CF4DB06F10800C6B209F101004B
:103A900000F0FF0918F809000028C9D1BDE8F08737
:103AA00049340000563400003A0000204200002053
:103AB0006F4B000830B589B005460C460121C8029D
:103AC000FDF732F801210420FDF72EF80121084608
:103AD000FDF72AF84FF47060ADF8200018208DF83B
:103AE000230003208DF8220008A94B48FCF760FD55
:103AF000ADF81850ADF814400020ADF81A00ADF83C
:103B0000160005A94548FDF74BFB7020ADF80400F1
:103B10000120ADF806000020ADF80C0001A93F48D7
:103B2000FDF77BFB01A93D48FDF7B9FB01A93B4827
:103B3000FDF702FC01A93948FDF749FC0821374887
:103B4000FDF7BAFF08213548FDF7BFFF08213348CC
:103B5000FDF7C8FF08213148FDF7CDFF01212F48AF
:103B6000FDF786FE01212D48FDF776FF01212B4848
:103B7000FDF772FE09B030BD7FB505460C46012148
:103B80000220FCF7DEFFADF80850ADF8044000203D
:103B9000ADF80600ADF80A0001A92148FDF700FBC9
:103BA000012211461E48FDF772FE1D208DF800000F
:103BB00003208DF801008DF8020001208DF803002C
:103BC0006846FCF72CFC01211548FDF745FE7FBD3A
:103BD00010B501211248FEF708F901281AD1012178
:103BE0000F48FEF713F90F48007828B90E480078FF
:103BF000401C0D49087002E000200B4908700A487B
:103C00000078642806DB002008490870064908701F
:103C10000749887010BD000000080140002C0140D9
:103C200000040040010000204A00002000000020A5
:103C30005C000020704770477047754600F02CF814
:103C4000AE4605006946534620F00700854618B089
:103C500020B5FCF7CDFBBDE820404FF000064FF04B
:103C600000074FF000084FF0000B21F00701AC46B1
:103C7000ACE8C009ACE8C009ACE8C009ACE8C009D0
:103C80008D46704710B50446AFF300802046BDE86E
:103C90001040FCF772BA0000004870478C0000200A
:103CA00001491820ABBEFEE7260002007047000065
:103CB00010B591EA030F48BF83F0004300F1828200
:103CC000841A71EB030C05D2121943EB0C03001B91
:103CD00061EB0C01DFF824E14FEA1154A4EB135C13
:103CE0001EEA430F18BF9EEA445F73D023EA0E0317
:103CF000DCF1200E21EA045143F4801332D322FA7E
:103D00000CFE10EB0E0023FA0CFE41EB0E01CCF181
:103D1000200E03FA0EFE10EB0E0051F10001B1F57A
:103D2000801FCCF1200E32D201EB045112FA0EF2B8
:103D3000BDE8104058BF7047401C38BF5FEA4202E0
:103D400018BF7047002814BF20F0010041F10001A6
:103D50004FEA410313F5001F38BF7047A1F1C0417E
:103D600000F016BA012A43EB0302ACF1200CDCF19F
:103D70001F0E32BF4FF0000E23FA0CF310EB0300BE
:103D800041EB0451B4EB115FD0D0A1EB045101F52C
:103D9000801149085FEA300001EB04510ED350F165
:103DA000000038BF12FA0EFE08D1BDE81040C9E786
:103DB000401C38BF5FEA4202CAD1C3E7BDE81040E9
:103DC0004FEA410313F5001F38BF7047A1F1C0410E
:103DD00000F0DEB99EEA445F08D011EA5E0FBDE84C
:103DE000104004BF01F0004100207047BDE81040C2
:103DF00070B500F07FF900BF64FBBE3E0000E0FF3D
:103E0000491058BFC1F140415B1058BFC3F1404356
:103E10008B42EFF3008070474FEA41034FEA535360
:103E2000A3F58063D3F11E03C8BFD3F1210C0CDDD1
:103E30004FF0004242EAC12242EA505232FA03FCF9
:103E40008CEAE17CACEBE1707047102BC4BF002022
:103E5000704703F5787CBCF1FF3F04D06FF000425F
:103E600082EA2100704770B500F044F9499224803D
:103E700000207047F2E700004FEA1153A3F580637A
:103E8000D3F11E03A8BFD3F1200C08DB4FF0004292
:103E900042EAC12252EA505232FA03F07047094214
:103EA0000BD4102BC4BF0020704703F5787CBCF105
:103EB000FF3F05D04FF0FF3070474FF000007047D4
:103EC00070B500F017F900BF4992248000207047B8
:103ED000F0E710F0004248BF4042B0FA80F310FA19
:103EE00003F10AD0C3F11D0303F580634FEA41508B
:103EF00002EB035202EBD12170474FF000007047F4
:103F0000B0FA80F310FA03F10AD0C3F11D0303F5F0
:103F100080634FEA41504FEA035202EBD1217047D0
:103F20004FF000007047000051EA030C17D41CF555
:103F3000801F58BFBCF5801F00F10680994218BF52
:103F4000704708BF9042704707D711F5801F58BFD0
:103F500013F5801F19D499427047894270471CF5A8
:103F6000801F08D5BCF5801FF7D58B4218BF70475E
:103F700008BF824270474FF4001C1CEB410F38BF52
:103F80001CEB430F01D28B42704770B500F0B2F8C2
:103F9000922449004FF000514FF08053FFF730BF9B
:103FA000DFF848C170B51CEA111E1EBF1CEA1315CC
:103FB0009EEA0C0F95EA0C0F00F06F8081EA030473
:103FC00023EA4C134EEAD47E21EA4C1141F48011CD
:103FD00043F48013AE44A1FB024CA0FB0365AEF199
:103FE0007F7E361955EB0C05A1FB034C4CF1000309
:103FF000A0FB021C16EB0C06654153F100030942BD
:1040000018BF46F0010613F4007F0BD14FEA0331CD
:104010004FEA0530340341EA155140EA16506FF07B
:1040200003020AE04FEAC3214FEAC520F40241EA45
:10403000555140EA56506FF0020202EB2E4201EB5E
:10404000025585EACE710AD05FEA440C18BF24F00D
:10405000004450F1000041F1000120EAD47040F228
:10406000FE7C624500D270BDA84214BF4FF0804470
:104070004FF04044002E08BF0024BEF1806FA8BF5F
:10408000A1F1C041BDE8704080F282804FF0000095
:1040900001F1C04101F0004170479EEA0C0F0CEAAB
:1040A000131518BF95EA0C0F06D04FF0000081EAF7
:1040B000030E0EF0004170BD00F01CF88900013EB7
:1040C00000F007B800F009B84FEA430C5FEA5C5C07
:1040D00008D081EA030100F05BB84FEA410C5FEAC7
:1040E0005C5CF6D14FF00000014970470000FF070B
:1040F0000000F87F0EF1020E2EF0030E5EF8046B46
:10410000364205D4012A43EB030515F5001F12D8EA
:10411000012841EB010C1CF5001F0CD80ED14FEA11
:10412000D17C15F5001F0CEB4C0C0CF1020C08BFF8
:104130004CEBD37C04E04FF0080C01E04FEAD37C59
:104140000CEB4C0526FA05F606F00706B6F1040C52
:1041500006D20EEB860CBDE870404CF0010C6047B7
:10416000DFE80CF0090B02024FF000414FF00000B5
:10417000A1F5002170BD19461046012851EB01043C
:1041800018BFD4F5001484BF002001F0004170BDB9
:104190000808A0F500114FEA3101704791EA030FBA
:1041A00010B581F000413FF58BAD83F0004300F086
:1041B00009B8000010B591EA030F48BF83F000432F
:1041C0003FF57EAD841A71EB030C07D212198CF007
:1041D000004C43EB0C03001B61EB0C01DFF8A4E186
:1041E0004FEA1154A4EB135C1EEA430F18BF9EEA7A
:1041F000445F00F0B08023EA6E03524221EA04518A
:10420000C3EB6E0338BF5B1EDCF1200E25D322FA10
:104210000CFE10EB0E0043FA0CFE41EB0E01CCF14C
:10422000200E03FA0EFE10EB0E0051F10001CCF14E
:10423000200E29D412FA0EF201EB0451BDE8104011
:1042400058BF7047401C1CBFB2F1004F7047002898
:104250000CBF491C20F00100704712EB020E43EB2B
:10426000030218BF4FF0010E4EEA4202ACF1200CDF
:10427000DCF11E0E54D943FA0CFE10EB0E0051F186
:10428000FF31CCF11E0ED5D50EF1010E12FA0EFE45
:10429000404141EB010101EB445C5FEA5C5C10D9F9
:1042A00010EBDE7001EB045138BFBEF1004FBDE8EA
:1042B000104018BF704700280CBF491C20F00100B7
:1042C000704730D24FEAD42C11F5001124F4006469
:1042D0001BD0B1FA81F20B3AA41AA41ED2F120032A
:1042E000914030FA03F31943904001EBCC71002C5C
:1042F00001EB0451BDE81040A8BF704701F1C04177
:104300004FF0000001F000417047B0FA80F310FA5E
:1043100003F100D110BDE41A173C4805C90AE4E7CF
:1043200001EB045110BD491001EB0451BDE81040F0
:104330004FEA300002E04FF0000170474A0008BF2A
:104340000042F8D0B2F5001F28BF704701F00041CD
:104350004FF0000070479EEA445F07D011EA5E0FFD
:10436000BDE8104004BF002100207047BDE81040A8
:1043700070B5FFF7BFFE00BF40DFF63E83F000419F
:10438000104670470000E0FF43004FEAD30C4FEAAD
:104390003C0C43401FBF40070CF1605113F0FE4F2F
:1043A00070471CF0006F03D100200CF000417047F3
:1043B0000CF0004343EA507010B540EACC0000F026
:1043C0004EF900BF000000924FEA0001FFF7E0BE87
:1043D0004FF000414FF00000A1F5002170470000B0
:1043E00090EA010F48BF81F0004100F1C681421AF6
:1043F0003CBF801A89184FEAD0524FF07F4C1CEA1C
:10440000410FA2EBD15318BF9CEA026F00F03B8032
:104410004FF0004C4CEA00204CEA012121FA03FC49
:1044200010EB0C0C1ED202F1FF325FEA1C2040EBB5
:10443000C25038BF70471CF07F0F4FEA400C18BFC6
:10444000BCF17F4F38BF7047C3F12003994008BFCC
:1044500020F00100BCF17F4F38BF7047A0F1C04091
:1044600000F043B94FEA3C00000A40EBC25028BFBD
:104470001CF0FF0F4FEA400CE6D018BFBCF17F4F95
:1044800038BF7047EAE79CEA026F05D010EA5C0F7C
:1044900008BF00F00040704710B500F0E0F800BF22
:1044A00064FBBE3E401058BFC0F14040491058BFA9
:1044B000C1F140418142EFF30080704741000B0E93
:1044C000D3F19E0208D950F400034FEA032323FAE4
:1044D00002F048BF4042704710B500F0C0F800BF7E
:1044E00049922480002070476FF0004282EA200049
:1044F0007047000050EA010C00F113801CF5000F1A
:1045000058BFBCF5000F01D48842704707D710F59B
:10451000000F58BF11F5000F15D48842704789422B
:1045200070471CF5000F04D5BCF5000FF7D581428C
:1045300070474FF0807C1CEB400F38BF1CEB410FE5
:1045400001D28142704710B500F089F892244900E9
:104550004FF000504FF08051FFF7A4BF4FF47F0C95
:104560001CEAD0121EBF1CEAD11392EA0C0F93EA88
:104570000C0F00F0478090EA010F48BF42F48072B0
:104580004FF0004C4CEA00204CEA012102EB030200
:10459000A0FB0113A2F50002002918BF43F001039C
:1045A0005B0028BF4FEA330342EB22425FEA132C41
:1045B0004CEBC2502EBFBCEB436FB2F57C0F704783
:1045C0004FEA036CBCF1004F08BF20F00100B2F5C8
:1045D0007C0F38BF70470BD582F0FF0212F5803F89
:1045E000C8BF704700F1C040D8BF00F0004070471E
:1045F00000F5000C5FEA4C0C48BF7047B0F1C040BA
:1046000000F073B890EA010F0CEAD11348BF42F4EE
:104610008072624538BF634504D280EA010000F031
:104620000040704710B500F01AF800BF8900013E45
:1046300000F007B800F009B85FEA410C5FEA1C6CB3
:1046400008D080EA010000F050B85FEA400C5FEA51
:104650001C6CF6D14FF00040A0F5800070470EF1C1
:10466000020E2EF0030E5EF8044B244204D44FEAEF
:104670004102B2F17F4F11D84FEA4003B3F17F4FAF
:104680000CD80ED14FEAD07CB2F17F4F0CEB4C0C22
:104690000CF1020C08BF4CEBD17C04E04FF0080C8D
:1046A00001E04FEAD17C0CEB4C0324FA03F404F054
:1046B0000704B4F1040C06D20EEB840CBDE81040E4
:1046C0004CF0010C6047DFE80CF0070802024FF0E5
:1046D0000040A0F5800010BD0846420018BFD2F18E
:1046E000807288BF00F0004010BDFF2141EAD05029
:1046F000C005704751EA000C00F113801CF5000F53
:1047000058BFBCF5000F01D48142704707D711F59F
:10471000000F58BF10F5000F15D481427047894231
:1047200070471CF5000F04D5BCF5000FF7D5884283
:1047300070474FF0807C1CEB410F38BF1CEB400FE3
:1047400001D28842704780EA010081EA000180EAD4
:104750000100FFF7F8BE80F0004090EA010F7FF5FE
:1047600046AE81F0004100F008B8000090EA010F69
:1047700048BF81F000413FF53AAE421A04D882F0BA
:104780000042A0EB020011444FEAD0524FF07F4CA0
:104790001CEA410FA2EBD15318BF9CEA026F4AD02A
:1047A0004FF0004C4CEA00204CEA012121FA03FCB6
:1047B000B0EB0C0C0FD412F0FE0F36D05FEA4C00B9
:1047C0001DD5001240EBC25038BF70471CF03F0FA0
:1047D00018BF70470BE0A2F101025FEA1C2040EB1A
:1047E000C25038BF70471CF07F0F18BF7047C3F12D
:1047F0002003994014BF401E20F00100704780083C
:104800004FEA122308BF7047B0FA80FCA2EB0C02FB
:10481000CCF1280C60FA0CF093EA122F04BF00EBE5
:10482000C25070474FEAC3707047130A5FEADC104A
:1048300008BF7047F6E79CEA026F04D010EA5C0FED
:1048400008BF0020704710B5FFF709FF40DFF63EB4
:1048500081F0004070470000000000000000002FC1
:10486000000000000700070000147F147F140024DC
:104870002A7F2A1200626408132300364955225009
:1048800000000503000000001C224100000041223E
:104890001C000014083E08140008083E0808000028
:1048A00000A0600008080808080800006060000018
:1048B000002010080402003E5149453E0000427F9E
:1048C0004000004261514946002141454B310018EA
:1048D00014127F10002745454539003C4A494930AC
:1048E0000001710905030036494949360006494966
:1048F000291E000036360000000056360000081C55
:104900002A4908080014141414140808492A1C0819
:1049100000020151090600324959513E007C121132
:10492000127C007F49494936003E41414122007FC7
:104930004141221C007F49494941007F0909090181
:10494000003E4149497A007F0808087F0000417F06
:104950004100002040413F01007F08142241007FB8
:1049600040404040007F020C027F007F0408107F1F
:10497000003E4141413E007F09090906003E415188
:10498000215E007F09192946004649494931000145
:10499000017F0101003F4040403F001F2040201F99
:1049A000003F4038403F006314081463000708705C
:1049B000080700615149454300007F41410000550F
:1049C0002A552A55000041417F000402FF020400DD
:1049D000002040FF40200000010204000020545449
:1049E0005478007F48444438003844444420003818
:1049F0004444487F00385454541800087E0901028A
:104A00000018A4A4A47C007F080404780000447D5E
:104A10004000004080847D00007F1028440000009A
:104A2000417F4000007C04180478007C080404786E
:104A300000384444443800FC24242418001824245A
:104A400018FC007C08040408004854545420000456
:104A50003F444020003C4040207C001C2040201C63
:104A6000003C4030403C004428102844001CA0A0DA
:104A7000A07C004464544C44141414141414BAE379
:104A8000CDD8BFC6BCBCB5E7B5F7D0A3D7BC00E056
:104A900000FF102002F29292929292F2020000FF26
:104AA0000000404F44444444444F401010FF1090D5
:104AB000040484E49C8484840444827F010402010D
:104AC000FF40404040FF0024A4FEA3220022CC006F
:104AD00000FF0000000601FF00010404040404FFBD
:104AE0000202021010FF109008888888FF888888CA
:104AF0000844827F01808040432C1028468180003A
:104B0000F888888888FF88888888F80000001F084F
:104B10000808087F888888889F80F042CC0000FEC3
:104B2000829292FE929282FE00003F10887F001EC9
:104B30001212125E807F0010D0FF9010804828096A
:104B40000E082848880300FF00018080432C102CA9
:104B5000438080020CE04020F84F4849FE48484816
:104B600008047F000000FF2222223F222222200090
:104B70000000000000000000000000000000000035
:104B80000000F800000000000000333000000000CA
:104B9000100C06100C060000000000000000004091
:104BA000C07840C0784000043F04043F0404000083
:104BB0007088FC08300000001820FF211E0000F063
:104BC00008F000E018000000211C031E211E000058
:104BD000F00888700000001E2123241927211010DE
:104BE000160E0000000000000000000000000000A1
:104BF0000000E01804020000000007182040000038
:104C0000020418E0000000004020180700000040E7
:104C10004080F0804040000202010F0102020000CB
:104C20000000F0000000000101011F01010100006F
:104C30000000000000000080B070000000000000D4
:104C4000000000000000000001010101010101005D
:104C500000000000000000003030000000000000F4
:104C600000000080601804006018060100000000C9
:104C7000E010080810E000000F102020100F0000C6
:104C80001010F8000000000020203F20200000004D
:104C900070080808887000003028242221300000A5
:104CA000300888884830000018202020110E0000AD
:104CB00000C02010F8000000070424243F24000056
:104CC000F80888880808000019212020110E00002B
:104CD000E0108888180000000F112020110E00003D
:104CE000380808C83808000000003F000000000035
:104CF00070880808887000001C222121221C0000F6
:104D0000E010080810E0000000312222110F00001E
:104D10000000C0C0000000000000303000000000B3
:104D20000000800000000000008060000000000023
:104D300000804020100800000102040810200040FC
:104D400040404040404000040404040404040000C7
:104D5000081020408000000020100804020100001C
:104D60007048080808F0000000003036010000C05C
:104D700030C828E810E0000718272423140B00008F
:104D800000C038E0000000203C2302022738200841
:104D9000F8888888700000203F202020110E00C075
:104DA00030080808083800071820202010080008DC
:104DB000F808080810E000203F202020100F00080D
:104DC000F88888E8081000203F20202320180008D9
:104DD000F88888E8081000203F200003000000C089
:104DE0003008080838000007182020221E0200089A
:104DF000F808000008F808203F210101213F2000A9
:104E00000808F8080800000020203F2020000000CB
:104E1000000808F8080800C08080807F00000008B3
:104E2000F888C028180800203F20012638200008F4
:104E3000F8080000000000203F202020203000085B
:104E4000F8F800F8F80800203F003F003F20000875
:104E5000F830C00008F808203F200007183F00E0A5
:104E60001008080810E0000F10202020100F000884
:104E7000F808080808F000203F210101010000E0C7
:104E80001008080810E0000F18242438504F0008BC
:104E9000F8888888887000203F2000030C302000AC
:104EA000708808080838000038202121221C0018CA
:104EB0000808F8080818000000203F20000000083B
:104EC000F808000008F808001F202020201F000814
:104ED00078880000C83808000007380E010000F884
:104EE0000800F80008F800033C0700073C0300082E
:104EF0001868808068180820302C03032C302008A4
:104F000038C800C83808000000203F20000000100A
:104F1000080808C83808002038262120201800007A
:104F20000000FE020202000000007F40404000003E
:104F30000C30C000000000000000010638C0000076
:104F4000020202FE000000004040407F000000001E
:104F50000004020202040000000000000000000043
:104F60000000000000000080808080808080800041
:104F70000202040000000000000000000000000029
:104F8000008080808000000019242222223F200817
:104F9000F8008080000000003F112020110E00006A
:104FA00000008080800000000E11202020110000F1
:104FB0000000808088F800000E112020103F2000A3
:104FC00000808080800000001F2222222213000027
:104FD0008080F0888888180020203F202000000072
:104FE00000808080808000006B949494936000081F
:104FF000F8008080800000203F210000203F20003A
:10500000809898000000000020203F202000000031
:105010000000809898000000C08080807F00000819
:10502000F8000080808000203F24022D3020000006
:105030000808F8000000000020203F202000008029
:1050400080808080808000203F20003F20003F80C3
:1050500080008080800000203F210000203F200051
:1050600000808080800000001F202020201F008002
:105070008000808000000080FFA12020110E000031
:1050800000008080808000000E112020A0FF808022
:105090008080008080800020203F212000010000CF
:1050A00000808080808000003324242424190000A4
:1050B0008080E0808000000000001F202000008031
:1050C00080000000808000001F202020103F2080F2
:1050D0008080000080808000010E30080601008082
:1050E000800080008080800F300C030C300F0000A7
:1050F000808000808080000020312E0E31200080D2
:105100008080000080808080818E70180601000001
:10511000808080808080000021302C22213000009F
:10512000000000807C020200000000003F404000C0
:10513000000000FF00000000000000FF0000000071
:1051400002027C800000000040403F0000000000A0
:10515000000000000080800000000000000101004D
:10516000000000000000000000000000000000003F
:10517000000000000000000000000000000000002F
:105180000000000000000000000000000000001807
:105190001C3C3C7CFC3C3C7CD80000000000000037
:1051A00000000000000000000000000000000000FF
:1051B00000000000000000000000000000000000EF
:1051C00000000000000000000000000000000000DF
:1051D00000000000000000000000000000000000CF
:1051E00000000000000000000000000000000000BF
:1051F000000000000000000000000000002060E04F
:10520000C0C0C0C080C080000000000000000000DE
:1052100000000000FF8040201F0000000000000090
:10522000000000000000000000000000000000007E
:1052300000000080C08080C0C0C0C060600000006E
:10524000000000000000000000000000000000005E
:10525000000000000000000000000000000000004E
:10526000000000000000000000000000000000003E
:10527000000000000000000000000000000000002E
:1052800000010119FFFFFFFF73F2F6E4E4ECC8C868
:10529000C0C080F0FFF0E0F0D0D8FCFEFFFFFFFFC1
:1052A000FCC0C0C0E0E0F0F0E0C0C0C4E4E4E2F262
:1052B000727BFFFFFFFF19010101000000000000E9
:1052C00000000000000000000000000000000000DE
:1052D00000000000000000000000000000000000CE
:1052E000000000000000000000000080808080803E
:1052F0008080C040C0F0F8F0F0E060F0F0707070B6
:10530000703030303FBF9F98988888C9C9C3C3E7C1
:10531000EFFFFFFFFFFFFFFFFFFFFFFFFFFFFFFFAD
:10532000FFFFFFFFFFFFFFFFFFFFF7E3E3C1C9C878
:10533000C8C8999F9F9FB8383830303070707070EF
:1053400070F0F8F8F8F0E0604040404040C0C0C065
:105350008080808080808080000000000000000647
:105360000202020203030301010101010101010123
:1053700000002070FFFFFFFFFFFFFE7E3E3E3E3E2F
:105380003F1F1F1F1F1F1F1F0F0F0F0F0F0F0703A1
:105390000101010103878F8F8F87BFFFFFFFFFFF91
:1053A000FFDF87878F878103030101010107070F53
:1053B0000F0F0F1F1F1F1F1F1F1F1F3F3F3E3E3C92
:1053C0007FFFFFFFFFFFFF3810000000000000001C
:1053D00000000000000101010101010101010100C3
:1053E00000000000000000000000000000000000BD
:1053F0000000000003FFFFFFFF1F0100000000008E
:10540000000000000000000000000000000000009C
:1054100000000000003F3F3F3F3F3F7FFFFFFFFF97
:10542000FFFFFFFFFFFFFF1F000000000000000064
:10543000000000000000000000000000000000006C
:105440000003FFFFFFFF030000000000000000005A
:10545000000000000000000000000000000000004C
:10546000000000000000000000000000000000003C
:10547000000000000007FFFFFF0000000000000028
:10548000000000000000000000000000000000001C
:10549000000000000000000000000000000000000C
:1054A00000000000000000000000000000000000FC
:1054B00000000000000000000000000000000000EC
:1054C000000003FFFF0300000000000000000000D8
:1054D00000000000000000000000000000000000CC
:1054E00000000000000000000000000000000000BC
:1054F000000000000000F0FFFFF0C000000000000E
:10550000000000000000000000000000000000009B
:10551000000000000000000000000000000000008B
:10552000000000000000000000000000000000007B
:10553000000000000000000000000000000000006B
:1055400000007C7F7F780000000000000000000069
:10555000000000000000000000000000000000202B
:1055600010E824272424E424342C20E00000000048
:1055700000000000000000000000000000000080AB
:10558000601F090909097F090949897F0000000096
:10559000000000000000000000000000000000000B
:1055A00000FC242424FC252624FC242424040000BC
:1055B00000000000000000000000000000000040AB
:1055C000308F80844C55252525554C8080800000E7
:1055D00000000000000000000000000000000010BB
:1055E00010D0FF905020504C434C502040400000C1
:1055F00000000000000000000000000000000004A7
:105600000300FF00414458414E60584740400000AD
:10561000000000000000000000000000000000107A
:1056200060028C00FE02F202FE00F800FF000000A3
:105630000000000000000000000000000000000466
:10564000047E018047300F10270047807F00000054
:10565000000000000000000000000000000000004A
:1056600000F888888888FF88888888F8000000000B
:10567000000000000000000000000000000000002A
:10568000001F080808087F888888889F80F000002D
:1056900000000000000000000000000000000010FA
:1056A00060028C004464544D46445464C4040000B9
:1056B00000000000000000000000000000000004E6
:1056C000047E0180403E0000FE00007E80E000007D
:1056D000000000000000000000000000000000408A
:1056E0004042CC0040A09E8282829EA020200000EA
:1056F00000000000000000000000000000000000AA
:1057000000003F908840432C1028464180800000D4
:105710000000000000000000000000000000001079
:105720000C4444444445C64444444444140C0000DE
:1057300000000000000000000000000000000080E9
:1057400040201E2040407F444444444440400000E8
:105750000000000000000000000000000000001039
:1057600060028C00FE02F202FE00F800FF00000062
:105770000000000000000000000000000000000425
:10578000047E018047300F10270047807F00000013
:1057900000000000000000000000000000000020E9
:1057A0002020BEAAAAAAAAAAAAAABE202020000037
:1057B00000000000000000000000000000000000E9
:1057C0008080AFAAAAAAFFAAAAAAAF808000000080
:1057D00000000000000000000000000000000010B9
:1057E00010D0FF9014E4AFA4A4A4AFE40400000020
:1057F00000000000000000000000000000000004A5
:105800000300FF00894B2A1A0E1A2A4B88800000D9
:105810000000000000000000000000000000001078
:105820001090909090901010FF1010111610000022
:105830000000000000000000000000000000000068
:105840002060203F10101000030C102040F80000D2
:105850000000000000000000000000000000000840
:1058600008E8292E28E80808C80C0BE808080000FA
:105870000000000000000000000000000000000028
:1058800000FF0949897F00000F40807F0000000071
:105890000000000000000000000000000000000008
:1058A0000000FC2424242422222223222020000081
:1058B00000000000000000000000000000000040A8
:1058C00020180700FE424242424242FE0000000011
:1058D00000000000000000000000000000000000C8
:1058E0000000000000FF4040404040400000000039
:1058F0000000000000000000000000000000004068
:1059000040404040407F40404040404040400000D8
:105910000000000000000000000000000000000285
:105920000202020202FE020242820202020200009F
:105930000000000000000000000000000000000067
:105940000000000000FF0000000001060000000051
:10595000000000000000000000000000000000083F
:1059600008080888780F08080808080808080000D0
:105970000000000000000000000000000000002007
:10598000104846414141417F414141414040000072
:1059900000000000000000000000000000000008FF
:1059A000080808C8380F0808080808080808000090
:1059B00000000000000000000000000000000008DF
:1059C000040201FF41414141414141FF000000000B
:1059D00000000000000000000000000000000000C7
:1059E000002010F8262C6AFED898800000000000E5
:1059F00000000000000000000000000000000000A7
:105A000004042414150D7F060A12322222200000FD
:105A10000000000000000000000000000000000086
:105A200000000000246CE058561000000000000048
:105A30000000000000000000000000000000000066
:105A400000004646251D070D152541414000000078
:105A50000000000000000000000000000000000046
:105A6000000080808080FC804040404000000000BA
:105A70000000000000000000000000000000000026
:105A800000004020100C03060830202040000000D9
:105A90000000000000000000000000000000000006
:105AA00000C04020ACA0A4E0982622702020000076
:105AB00000000000000000000000000000000000E6
:105AC000000404040444453E0202020202000000F5
:105AD00000000000000000000000000000000000C6
